{
  "contractName": "ResumeVerification",
  "abi": [
    {
      "inputs": [],
      "stateMutability": "nonpayable",
      "type": "constructor"
    },
    {
      "anonymous": false,
      "inputs": [
        {
          "indexed": true,
          "internalType": "string",
          "name": "resumeHash",
          "type": "string"
        },
        {
          "indexed": true,
          "internalType": "address",
          "name": "owner",
          "type": "address"
        },
        {
          "indexed": false,
          "internalType": "uint256",
          "name": "timestamp",
          "type": "uint256"
        }
      ],
      "name": "ResumeStored",
      "type": "event"
    },
    {
      "anonymous": false,
      "inputs": [
        {
          "indexed": true,
          "internalType": "string",
          "name": "resumeHash",
          "type": "string"
        },
        {
          "indexed": true,
          "internalType": "address",
          "name": "owner",
          "type": "address"
        },
        {
          "indexed": false,
          "internalType": "uint256",
          "name": "timestamp",
          "type": "uint256"
        }
      ],
      "name": "ResumeUpdated",
      "type": "event"
    },
    {
      "anonymous": false,
      "inputs": [
        {
          "indexed": true,
          "internalType": "string",
          "name": "resumeHash",
          "type": "string"
        },
        {
          "indexed": true,
          "internalType": "address",
          "name": "verifier",
          "type": "address"
        },
        {
          "indexed": false,
          "internalType": "enum ResumeVerification.ResumeStatus",
          "name": "status",
          "type": "uint8"
        }
      ],
      "name": "ResumeVerified",
      "type": "event"
    },
    {
      "anonymous": false,
      "inputs": [
        {
          "indexed": true,
          "internalType": "address",
          "name": "verifier",
          "type": "address"
        }
      ],
      "name": "VerifierAdded",
      "type": "event"
    },
    {
      "anonymous": false,
      "inputs": [
        {
          "indexed": true,
          "internalType": "address",
          "name": "verifier",
          "type": "address"
        }
      ],
      "name": "VerifierRemoved",
      "type": "event"
    },
    {
      "inputs": [
        {
          "internalType": "string",
          "name": "",
          "type": "string"
        }
      ],
      "name": "resumes",
      "outputs": [
        {
          "internalType": "string",
          "name": "name",
          "type": "string"
        },
        {
          "internalType": "string",
          "name": "email",
          "type": "string"
        },
        {
          "internalType": "string",
          "name": "education",
          "type": "string"
        },
        {
          "internalType": "string",
          "name": "workExperience",
          "type": "string"
        },
        {
          "internalType": "string",
          "name": "skills",
          "type": "string"
        },
        {
          "internalType": "string",
          "name": "ipfsHash",
          "type": "string"
        },
        {
          "internalType": "uint256",
          "name": "timestamp",
          "type": "uint256"
        },
        {
          "internalType": "address",
          "name": "owner",
          "type": "address"
        },
        {
          "internalType": "enum ResumeVerification.ResumeStatus",
          "name": "status",
          "type": "uint8"
        },
        {
          "internalType": "string",
          "name": "verificationNotes",
          "type": "string"
        },
        {
          "internalType": "uint256",
          "name": "lastUpdated",
          "type": "uint256"
        }
      ],
      "stateMutability": "view",
      "type": "function",
      "constant": true
    },
    {
      "inputs": [
        {
          "internalType": "address",
          "name": "",
          "type": "address"
        },
        {
          "internalType": "uint256",
          "name": "",
          "type": "uint256"
        }
      ],
      "name": "userResumes",
      "outputs": [
        {
          "internalType": "string",
          "name": "",
          "type": "string"
        }
      ],
      "stateMutability": "view",
      "type": "function",
      "constant": true
    },
    {
      "inputs": [
        {
          "internalType": "address",
          "name": "",
          "type": "address"
        }
      ],
      "name": "verifiers",
      "outputs": [
        {
          "internalType": "bool",
          "name": "",
          "type": "bool"
        }
      ],
      "stateMutability": "view",
      "type": "function",
      "constant": true
    },
    {
      "inputs": [
        {
          "internalType": "address",
          "name": "_verifier",
          "type": "address"
        }
      ],
      "name": "addVerifier",
      "outputs": [],
      "stateMutability": "nonpayable",
      "type": "function"
    },
    {
      "inputs": [
        {
          "internalType": "address",
          "name": "_verifier",
          "type": "address"
        }
      ],
      "name": "removeVerifier",
      "outputs": [],
      "stateMutability": "nonpayable",
      "type": "function"
    },
    {
      "inputs": [
        {
          "internalType": "string",
          "name": "_resumeHash",
          "type": "string"
        },
        {
          "internalType": "string",
          "name": "_name",
          "type": "string"
        },
        {
          "internalType": "string",
          "name": "_email",
          "type": "string"
        },
        {
          "internalType": "string",
          "name": "_education",
          "type": "string"
        },
        {
          "internalType": "string",
          "name": "_workExperience",
          "type": "string"
        },
        {
          "internalType": "string",
          "name": "_skills",
          "type": "string"
        },
        {
          "internalType": "string",
          "name": "_ipfsHash",
          "type": "string"
        }
      ],
      "name": "storeResume",
      "outputs": [],
      "stateMutability": "nonpayable",
      "type": "function"
    },
    {
      "inputs": [
        {
          "internalType": "string",
          "name": "_resumeHash",
          "type": "string"
        },
        {
          "internalType": "string",
          "name": "_name",
          "type": "string"
        },
        {
          "internalType": "string",
          "name": "_email",
          "type": "string"
        },
        {
          "internalType": "string",
          "name": "_education",
          "type": "string"
        },
        {
          "internalType": "string",
          "name": "_workExperience",
          "type": "string"
        },
        {
          "internalType": "string",
          "name": "_skills",
          "type": "string"
        },
        {
          "internalType": "string",
          "name": "_ipfsHash",
          "type": "string"
        }
      ],
      "name": "updateResume",
      "outputs": [],
      "stateMutability": "nonpayable",
      "type": "function"
    },
    {
      "inputs": [
        {
          "internalType": "string",
          "name": "_resumeHash",
          "type": "string"
        },
        {
          "internalType": "enum ResumeVerification.ResumeStatus",
          "name": "_status",
          "type": "uint8"
        },
        {
          "internalType": "string",
          "name": "_notes",
          "type": "string"
        }
      ],
      "name": "verifyResume",
      "outputs": [],
      "stateMutability": "nonpayable",
      "type": "function"
    },
    {
      "inputs": [
        {
          "internalType": "string",
          "name": "_resumeHash",
          "type": "string"
        }
      ],
      "name": "getResume",
      "outputs": [
        {
          "internalType": "string",
          "name": "name",
          "type": "string"
        },
        {
          "internalType": "string",
          "name": "email",
          "type": "string"
        },
        {
          "internalType": "string",
          "name": "education",
          "type": "string"
        },
        {
          "internalType": "string",
          "name": "workExperience",
          "type": "string"
        },
        {
          "internalType": "string",
          "name": "skills",
          "type": "string"
        },
        {
          "internalType": "string",
          "name": "ipfsHash",
          "type": "string"
        },
        {
          "internalType": "uint256",
          "name": "timestamp",
          "type": "uint256"
        },
        {
          "internalType": "address",
          "name": "owner",
          "type": "address"
        },
        {
          "internalType": "enum ResumeVerification.ResumeStatus",
          "name": "status",
          "type": "uint8"
        },
        {
          "internalType": "string",
          "name": "verificationNotes",
          "type": "string"
        },
        {
          "internalType": "uint256",
          "name": "lastUpdated",
          "type": "uint256"
        }
      ],
      "stateMutability": "view",
      "type": "function",
      "constant": true
    },
    {
      "inputs": [
        {
          "internalType": "address",
          "name": "_user",
          "type": "address"
        }
      ],
      "name": "getUserResumes",
      "outputs": [
        {
          "internalType": "string[]",
          "name": "",
          "type": "string[]"
        }
      ],
      "stateMutability": "view",
      "type": "function",
      "constant": true
    }
  ],
  "bytecode": "0x608060405234801561001057600080fd5b50336000908152600260205260409020805460ff19166001179055611b198061003a6000396000f3fe608060405234801561001057600080fd5b506004361061009e5760003560e01c806383dd11451161006657806383dd1145146101345780639000b3d61461015e578063a583504d14610171578063ca2dfd0a14610184578063d0eab116146101975761009e565b80630c659e9f146100a3578063173efe0c146100b85780632441dca6146100e157806341be0dd8146100f45780636c82448714610114575b600080fd5b6100b66100b1366004611595565b6101aa565b005b6100cb6100c6366004611531565b6102f9565b6040516100d89190611816565b60405180910390f35b6100b66100ef36600461160d565b6103b2565b610107610102366004611510565b610684565b6040516100d89190611797565b610127610122366004611510565b610774565b6040516100d891906117f7565b61014761014236600461155a565b610789565b6040516100d89b9a99989796959493929190611829565b6100b661016c366004611510565b610bb1565b61014761017f36600461155a565b610c52565b6100b6610192366004611510565b611168565b6100b66101a536600461160d565b611209565b3360009081526002602052604090205460ff166101e25760405162461bcd60e51b81526004016101d9906119eb565b60405180910390fd5b600080846040516101f3919061177b565b908152604051908190036020019020805461020d90611a92565b90501161022c5760405162461bcd60e51b81526004016101d990611928565b6000808460405161023d919061177b565b908152604051908190036020019020600781018054919250849160ff60a01b1916600160a01b83600281111561028357634e487b7160e01b600052602160045260246000fd5b0217905550815161029d90600883019060208501906113df565b5042600982015560405133906102b490869061177b565b60405180910390207f462939e88777fbbb7022a070de095916a35bdb0ec5592820dcd0c982c12c4e26856040516102eb9190611802565b60405180910390a350505050565b6001602052816000526040600020818154811061031557600080fd5b9060005260206000200160009150915050805461033190611a92565b80601f016020809104026020016040519081016040528092919081815260200182805461035d90611a92565b80156103aa5780601f1061037f576101008083540402835291602001916103aa565b820191906000526020600020905b81548152906001019060200180831161038d57829003601f168201915b505050505081565b60008751116103d35760405162461bcd60e51b81526004016101d990611a22565b6000876040516103e3919061177b565b90815260405190819003602001902080546103fd90611a92565b15905061041c5760405162461bcd60e51b81526004016101d990611957565b604051806101600160405280878152602001868152602001858152602001848152602001838152602001828152602001428152602001336001600160a01b031681526020016000600281111561048257634e487b7160e01b600052602160045260246000fd5b8152602001604051806020016040528060008152508152602001428152506000886040516104b0919061177b565b908152602001604051809103902060008201518160000190805190602001906104da9291906113df565b5060208281015180516104f392600185019201906113df565b506040820151805161050f9160028401916020909101906113df565b506060820151805161052b9160038401916020909101906113df565b50608082015180516105479160048401916020909101906113df565b5060a082015180516105639160058401916020909101906113df565b5060c0820151600682015560e08201516007820180546001600160a01b0319166001600160a01b0390921691909117808255610100840151919060ff60a01b1916600160a01b8360028111156105c957634e487b7160e01b600052602160045260246000fd5b021790555061012082015180516105ea9160088401916020909101906113df565b506101409190910151600990910155336000908152600160208181526040832080549283018155835291829020895161062b939190920191908a01906113df565b50604051339061063c90899061177b565b60405180910390207faa61bd483eb6947ba417da2f3421ebb2c2960edd166d9e90d1be379e19ef760a426040516106739190611a59565b60405180910390a350505050505050565b6001600160a01b0381166000908152600160209081526040808320805482518185028101850190935280835260609492939192909184015b828210156107685783829060005260206000200180546106db90611a92565b80601f016020809104026020016040519081016040528092919081815260200182805461070790611a92565b80156107545780601f1061072957610100808354040283529160200191610754565b820191906000526020600020905b81548152906001019060200180831161073757829003601f168201915b5050505050815260200190600101906106bc565b5050505090505b919050565b60026020526000908152604090205460ff1681565b80516020818301810180516000825292820191909301209152805481906107af90611a92565b80601f01602080910402602001604051908101604052809291908181526020018280546107db90611a92565b80156108285780601f106107fd57610100808354040283529160200191610828565b820191906000526020600020905b81548152906001019060200180831161080b57829003601f168201915b50505050509080600101805461083d90611a92565b80601f016020809104026020016040519081016040528092919081815260200182805461086990611a92565b80156108b65780601f1061088b576101008083540402835291602001916108b6565b820191906000526020600020905b81548152906001019060200180831161089957829003601f168201915b5050505050908060020180546108cb90611a92565b80601f01602080910402602001604051908101604052809291908181526020018280546108f790611a92565b80156109445780601f1061091957610100808354040283529160200191610944565b820191906000526020600020905b81548152906001019060200180831161092757829003601f168201915b50505050509080600301805461095990611a92565b80601f016020809104026020016040519081016040528092919081815260200182805461098590611a92565b80156109d25780601f106109a7576101008083540402835291602001916109d2565b820191906000526020600020905b8154815290600101906020018083116109b557829003601f168201915b5050505050908060040180546109e790611a92565b80601f0160208091040260200160405190810160405280929190818152602001828054610a1390611a92565b8015610a605780601f10610a3557610100808354040283529160200191610a60565b820191906000526020600020905b815481529060010190602001808311610a4357829003601f168201915b505050505090806005018054610a7590611a92565b80601f0160208091040260200160405190810160405280929190818152602001828054610aa190611a92565b8015610aee5780601f10610ac357610100808354040283529160200191610aee565b820191906000526020600020905b815481529060010190602001808311610ad157829003601f168201915b5050505060068301546007840154600885018054949592946001600160a01b0383169450600160a01b90920460ff169291610b2890611a92565b80601f0160208091040260200160405190810160405280929190818152602001828054610b5490611a92565b8015610ba15780601f10610b7657610100808354040283529160200191610ba1565b820191906000526020600020905b815481529060010190602001808311610b8457829003601f168201915b505050505090806009015490508b565b3360009081526002602052604090205460ff16610be05760405162461bcd60e51b81526004016101d9906119eb565b6001600160a01b038116610c065760405162461bcd60e51b81526004016101d9906119b4565b6001600160a01b038116600081815260026020526040808220805460ff19166001179055517f6d05492139c5ea989514a5d2150c028041e5c087e2a39967f67dc7d2655adb819190a250565b6060806060806060806000806000606060008060008d604051610c75919061177b565b908152602001604051809103902060405180610160016040529081600082018054610c9f90611a92565b80601f0160208091040260200160405190810160405280929190818152602001828054610ccb90611a92565b8015610d185780601f10610ced57610100808354040283529160200191610d18565b820191906000526020600020905b815481529060010190602001808311610cfb57829003601f168201915b50505050508152602001600182018054610d3190611a92565b80601f0160208091040260200160405190810160405280929190818152602001828054610d5d90611a92565b8015610daa5780601f10610d7f57610100808354040283529160200191610daa565b820191906000526020600020905b815481529060010190602001808311610d8d57829003601f168201915b50505050508152602001600282018054610dc390611a92565b80601f0160208091040260200160405190810160405280929190818152602001828054610def90611a92565b8015610e3c5780601f10610e1157610100808354040283529160200191610e3c565b820191906000526020600020905b815481529060010190602001808311610e1f57829003601f168201915b50505050508152602001600382018054610e5590611a92565b80601f0160208091040260200160405190810160405280929190818152602001828054610e8190611a92565b8015610ece5780601f10610ea357610100808354040283529160200191610ece565b820191906000526020600020905b815481529060010190602001808311610eb157829003601f168201915b50505050508152602001600482018054610ee790611a92565b80601f0160208091040260200160405190810160405280929190818152602001828054610f1390611a92565b8015610f605780601f10610f3557610100808354040283529160200191610f60565b820191906000526020600020905b815481529060010190602001808311610f4357829003601f168201915b50505050508152602001600582018054610f7990611a92565b80601f0160208091040260200160405190810160405280929190818152602001828054610fa590611a92565b8015610ff25780601f10610fc757610100808354040283529160200191610ff2565b820191906000526020600020905b815481529060010190602001808311610fd557829003601f168201915b50505091835250506006820154602082015260078201546001600160a01b0381166040830152606090910190600160a01b900460ff16600281111561104757634e487b7160e01b600052602160045260246000fd5b600281111561106657634e487b7160e01b600052602160045260246000fd5b815260200160088201805461107a90611a92565b80601f01602080910402602001604051908101604052809291908181526020018280546110a690611a92565b80156110f35780601f106110c8576101008083540402835291602001916110f3565b820191906000526020600020905b8154815290600101906020018083116110d657829003601f168201915b505050505081526020016009820154815250509050806000015181602001518260400151836060015184608001518560a001518660c001518760e001518861010001518961012001518a61014001519b509b509b509b509b509b509b509b509b509b509b505091939597999b90929496989a50565b3360009081526002602052604090205460ff166111975760405162461bcd60e51b81526004016101d9906119eb565b6001600160a01b0381163314156111c05760405162461bcd60e51b81526004016101d9906118f1565b6001600160a01b038116600081815260026020526040808220805460ff19169055517f44a3cd4eb5cc5748f6169df057b1cb2ae4c383e87cd94663c430e095d4cba4249190a250565b86336001600160a01b0316600082604051611224919061177b565b908152604051908190036020019020600701546001600160a01b03161461125d5760405162461bcd60e51b81526004016101d990611986565b6000808960405161126e919061177b565b908152604051908190036020019020805461128890611a92565b9050116112a75760405162461bcd60e51b81526004016101d990611928565b600080896040516112b8919061177b565b90815260200160405180910390209050878160000190805190602001906112e09291906113df565b5086516112f690600183019060208a01906113df565b50855161130c90600283019060208901906113df565b50845161132290600383019060208801906113df565b50835161133890600483019060208701906113df565b50825161134e90600583019060208601906113df565b5042600982015560078101805460ff60a01b191690556040805160208101918290526000908190526113849160088401916113df565b506040513390611395908b9061177b565b60405180910390207fb69b45d3896f8ac6a6d517d6caec718d3f395e868f202c37e0f36eba8fbf44e9426040516113cc9190611a59565b60405180910390a3505050505050505050565b8280546113eb90611a92565b90600052602060002090601f01602090048101928261140d5760008555611453565b82601f1061142657805160ff1916838001178555611453565b82800160010185558215611453579182015b82811115611453578251825591602001919060010190611438565b5061145f929150611463565b5090565b5b8082111561145f5760008155600101611464565b80356001600160a01b038116811461076f57600080fd5b600082601f83011261149f578081fd5b813567ffffffffffffffff808211156114ba576114ba611acd565b604051601f8301601f1916810160200182811182821017156114de576114de611acd565b6040528281528483016020018610156114f5578384fd5b82602086016020830137918201602001929092529392505050565b600060208284031215611521578081fd5b61152a82611478565b9392505050565b60008060408385031215611543578081fd5b61154c83611478565b946020939093013593505050565b60006020828403121561156b578081fd5b813567ffffffffffffffff811115611581578182fd5b61158d8482850161148f565b949350505050565b6000806000606084860312156115a9578081fd5b833567ffffffffffffffff808211156115c0578283fd5b6115cc8783880161148f565b945060208601359150600382106115e1578283fd5b909250604085013590808211156115f6578283fd5b506116038682870161148f565b9150509250925092565b600080600080600080600060e0888a031215611627578283fd5b873567ffffffffffffffff8082111561163e578485fd5b61164a8b838c0161148f565b985060208a013591508082111561165f578485fd5b61166b8b838c0161148f565b975060408a0135915080821115611680578485fd5b61168c8b838c0161148f565b965060608a01359150808211156116a1578485fd5b6116ad8b838c0161148f565b955060808a01359150808211156116c2578485fd5b6116ce8b838c0161148f565b945060a08a01359150808211156116e3578384fd5b6116ef8b838c0161148f565b935060c08a0135915080821115611704578283fd5b506117118a828b0161148f565b91505092959891949750929550565b6001600160a01b03169052565b6003811061174b57634e487b7160e01b600052602160045260246000fd5b9052565b60008151808452611767816020860160208601611a62565b601f01601f19169290920160200192915050565b6000825161178d818460208701611a62565b9190910192915050565b6000602080830181845280855180835260408601915060408482028701019250838701855b828110156117ea57603f198886030184526117d885835161174f565b945092850192908501906001016117bc565b5092979650505050505050565b901515815260200190565b60208101611810828461172d565b92915050565b60006020825261152a602083018461174f565b600061016080835261183d8184018f61174f565b90508281036020840152611851818e61174f565b90508281036040840152611865818d61174f565b90508281036060840152611879818c61174f565b9050828103608084015261188d818b61174f565b905082810360a08401526118a1818a61174f565b90508760c08401526118b660e0840188611720565b6118c461010084018761172d565b8281036101208401526118d7818661174f565b915050826101408301529c9b505050505050505050505050565b6020808252601e908201527f43616e6e6f742072656d6f76652073656c662061732076657269666965720000604082015260600190565b60208082526015908201527414995cdd5b5948191bd95cc81b9bdd08195e1a5cdd605a1b604082015260600190565b602080825260159082015274526573756d6520616c72656164792065786973747360581b604082015260600190565b6020808252601490820152732737ba103a3432903932b9bab6b29037bbb732b960611b604082015260600190565b60208082526018908201527f496e76616c696420766572696669657220616464726573730000000000000000604082015260600190565b6020808252601a908201527f4e6f7420617574686f72697a6564206173207665726966696572000000000000604082015260600190565b6020808252601b908201527f526573756d6520686173682063616e6e6f7420626520656d7074790000000000604082015260600190565b90815260200190565b60005b83811015611a7d578181015183820152602001611a65565b83811115611a8c576000848401525b50505050565b600281046001821680611aa657607f821691505b60208210811415611ac757634e487b7160e01b600052602260045260246000fd5b50919050565b634e487b7160e01b600052604160045260246000fdfea2646970667358221220998d531e631cd7171cfb66f0a89005147489fedaa2800a35376ab26225c7206d64736f6c63430008000033",
  "immutableReferences": {},
  "source": "// SPDX-License-Identifier: MIT\npragma solidity ^0.8.0;\n\ncontract ResumeVerification {\n    enum ResumeStatus { Pending, Verified, Rejected }\n    \n    struct Resume {\n        string name;\n        string email;\n        string education;\n        string workExperience;\n        string skills;\n        string ipfsHash;\n        uint256 timestamp;\n        address owner;\n        ResumeStatus status;\n        string verificationNotes;\n        uint256 lastUpdated;\n    }\n\n    mapping(string => Resume) public resumes;\n    mapping(address => string[]) public userResumes;\n    mapping(address => bool) public verifiers;\n\n    event ResumeStored(string indexed resumeHash, address indexed owner, uint256 timestamp);\n    event ResumeUpdated(string indexed resumeHash, address indexed owner, uint256 timestamp);\n    event ResumeVerified(string indexed resumeHash, address indexed verifier, ResumeStatus status);\n    event VerifierAdded(address indexed verifier);\n    event VerifierRemoved(address indexed verifier);\n\n    modifier onlyVerifier() {\n        require(verifiers[msg.sender], \"Not authorized as verifier\");\n        _;\n    }\n\n    modifier onlyOwner(string memory _resumeHash) {\n        require(resumes[_resumeHash].owner == msg.sender, \"Not the resume owner\");\n        _;\n    }\n\n    constructor() {\n        verifiers[msg.sender] = true;\n    }\n\n    function addVerifier(address _verifier) external onlyVerifier {\n        require(_verifier != address(0), \"Invalid verifier address\");\n        verifiers[_verifier] = true;\n        emit VerifierAdded(_verifier);\n    }\n\n    function removeVerifier(address _verifier) external onlyVerifier {\n        require(_verifier != msg.sender, \"Cannot remove self as verifier\");\n        verifiers[_verifier] = false;\n        emit VerifierRemoved(_verifier);\n    }\n\n    function storeResume(\n        string memory _resumeHash,\n        string memory _name,\n        string memory _email,\n        string memory _education,\n        string memory _workExperience,\n        string memory _skills,\n        string memory _ipfsHash\n    ) external {\n        require(bytes(_resumeHash).length > 0, \"Resume hash cannot be empty\");\n        require(bytes(resumes[_resumeHash].name).length == 0, \"Resume already exists\");\n        \n        resumes[_resumeHash] = Resume({\n            name: _name,\n            email: _email,\n            education: _education,\n            workExperience: _workExperience,\n            skills: _skills,\n            ipfsHash: _ipfsHash,\n            timestamp: block.timestamp,\n            owner: msg.sender,\n            status: ResumeStatus.Pending,\n            verificationNotes: \"\",\n            lastUpdated: block.timestamp\n        });\n\n        userResumes[msg.sender].push(_resumeHash);\n        emit ResumeStored(_resumeHash, msg.sender, block.timestamp);\n    }\n\n    function updateResume(\n        string memory _resumeHash,\n        string memory _name,\n        string memory _email,\n        string memory _education,\n        string memory _workExperience,\n        string memory _skills,\n        string memory _ipfsHash\n    ) external onlyOwner(_resumeHash) {\n        require(bytes(resumes[_resumeHash].name).length > 0, \"Resume does not exist\");\n        \n        Resume storage resume = resumes[_resumeHash];\n        resume.name = _name;\n        resume.email = _email;\n        resume.education = _education;\n        resume.workExperience = _workExperience;\n        resume.skills = _skills;\n        resume.ipfsHash = _ipfsHash;\n        resume.lastUpdated = block.timestamp;\n        resume.status = ResumeStatus.Pending;\n        resume.verificationNotes = \"\";\n\n        emit ResumeUpdated(_resumeHash, msg.sender, block.timestamp);\n    }\n\n    function verifyResume(\n        string memory _resumeHash, \n        ResumeStatus _status,\n        string memory _notes\n    ) external onlyVerifier {\n        require(bytes(resumes[_resumeHash].name).length > 0, \"Resume does not exist\");\n        Resume storage resume = resumes[_resumeHash];\n        resume.status = _status;\n        resume.verificationNotes = _notes;\n        resume.lastUpdated = block.timestamp;\n        \n        emit ResumeVerified(_resumeHash, msg.sender, _status);\n    }\n\n    function getResume(string memory _resumeHash) external view returns (\n        string memory name,\n        string memory email,\n        string memory education,\n        string memory workExperience,\n        string memory skills,\n        string memory ipfsHash,\n        uint256 timestamp,\n        address owner,\n        ResumeStatus status,\n        string memory verificationNotes,\n        uint256 lastUpdated\n    ) {\n        Resume memory resume = resumes[_resumeHash];\n        return (\n            resume.name,\n            resume.email,\n            resume.education,\n            resume.workExperience,\n            resume.skills,\n            resume.ipfsHash,\n            resume.timestamp,\n            resume.owner,\n            resume.status,\n            resume.verificationNotes,\n            resume.lastUpdated\n        );\n    }\n\n    function getUserResumes(address _user) external view returns (string[] memory) {\n        return userResumes[_user];\n    }\n} ",
  "sourcePath": "/Users/wjj/java/contracts/ResumeVerification.sol",
  "compiler": {
    "name": "solc",
    "version": "0.8.0+commit.c7dfd78e.Emscripten.clang"
  },
  "schemaVersion": "3.4.16",
  "updatedAt": "2025-05-08T08:38:55.372Z",
  "networkType": "ethereum",
  "devdoc": {
    "kind": "dev",
    "methods": {},
    "version": 1
  },
  "userdoc": {
    "kind": "user",
    "methods": {},
    "version": 1
  }
}